{
  "contractName": "IpfsStorage",
  "abi": [
    {
      "inputs": [],
      "payable": false,
      "stateMutability": "nonpayable",
      "type": "constructor"
    },
    {
      "anonymous": false,
      "inputs": [
        {
          "indexed": true,
          "internalType": "string",
          "name": "",
          "type": "string"
        }
      ],
      "name": "ReceivedHash",
      "type": "event"
    },
    {
      "anonymous": false,
      "inputs": [
        {
          "indexed": true,
          "internalType": "address",
          "name": "",
          "type": "address"
        },
        {
          "indexed": true,
          "internalType": "string",
          "name": "",
          "type": "string"
        }
      ],
      "name": "SendHash",
      "type": "event"
    },
    {
      "constant": true,
      "inputs": [
        {
          "internalType": "uint256",
          "name": "",
          "type": "uint256"
        }
      ],
      "name": "data",
      "outputs": [
        {
          "internalType": "uint256",
          "name": "id",
          "type": "uint256"
        },
        {
          "internalType": "address",
          "name": "from",
          "type": "address"
        },
        {
          "internalType": "bytes",
          "name": "ipfsAddress",
          "type": "bytes"
        },
        {
          "internalType": "uint256",
          "name": "timestamp",
          "type": "uint256"
        }
      ],
      "payable": false,
      "stateMutability": "view",
      "type": "function"
    },
    {
      "constant": false,
      "inputs": [
        {
          "internalType": "string",
          "name": "_ipfsHash",
          "type": "string"
        }
      ],
      "name": "storingHash",
      "outputs": [],
      "payable": false,
      "stateMutability": "nonpayable",
      "type": "function"
    },
    {
      "constant": true,
      "inputs": [],
      "name": "getIds",
      "outputs": [
        {
          "internalType": "uint256[]",
          "name": "",
          "type": "uint256[]"
        }
      ],
      "payable": false,
      "stateMutability": "view",
      "type": "function"
    },
    {
      "constant": true,
      "inputs": [
        {
          "internalType": "uint256",
          "name": "_id",
          "type": "uint256"
        }
      ],
      "name": "getValues",
      "outputs": [
        {
          "internalType": "uint256",
          "name": "",
          "type": "uint256"
        },
        {
          "internalType": "address",
          "name": "",
          "type": "address"
        },
        {
          "internalType": "bytes",
          "name": "",
          "type": "bytes"
        },
        {
          "internalType": "uint256",
          "name": "",
          "type": "uint256"
        }
      ],
      "payable": false,
      "stateMutability": "view",
      "type": "function"
    },
    {
      "constant": false,
      "inputs": [],
      "name": "checkInbox",
      "outputs": [],
      "payable": false,
      "stateMutability": "nonpayable",
      "type": "function"
    }
  ],
  "bytecode": "0x608060405234801561001057600080fd5b50610b82806100206000396000f3fe608060405234801561001057600080fd5b50600436106100575760003560e01c80632b1056631461005c5780635c23d56f146100bb578063b29e522c146100c5578063e067c67e146101ad578063f0ba844014610268575b600080fd5b610064610350565b6040518080602001828103825283818151815260200191508051906020019060200280838360005b838110156100a757808201518184015260208101905061008c565b505050509050019250505060405180910390f35b6100c36103a8565b005b6100f1600480360360208110156100db57600080fd5b8101908080359060200190929190505050610585565b604051808581526020018473ffffffffffffffffffffffffffffffffffffffff1673ffffffffffffffffffffffffffffffffffffffff16815260200180602001838152602001828103825284818151815260200191508051906020019080838360005b8381101561016f578082015181840152602081019050610154565b50505050905090810190601f16801561019c5780820380516001836020036101000a031916815260200191505b509550505050505060405180910390f35b610266600480360360208110156101c357600080fd5b81019080803590602001906401000000008111156101e057600080fd5b8201836020820111156101f257600080fd5b8035906020019184600183028401116401000000008311171561021457600080fd5b91908080601f016020809104026020016040519081016040528093929190818152602001838380828437600081840152601f19601f8201169050808301925050505050505091929192905050506106b2565b005b6102946004803603602081101561027e57600080fd5b8101908080359060200190929190505050610918565b604051808581526020018473ffffffffffffffffffffffffffffffffffffffff1673ffffffffffffffffffffffffffffffffffffffff16815260200180602001838152602001828103825284818151815260200191508051906020019080838360005b838110156103125780820151818401526020810190506102f7565b50505050905090810190601f16801561033f5780820380516001836020036101000a031916815260200191505b509550505050505060405180910390f35b6060600280548060200260200160405190810160405280929190818152602001828054801561039e57602002820191906000526020600020905b81548152602001906001019080831161038a575b5050505050905090565b60606000803373ffffffffffffffffffffffffffffffffffffffff1673ffffffffffffffffffffffffffffffffffffffff1681526020019081526020016000208054600181600116156101000203166002900480601f01602080910402602001604051908101604052809291908181526020018280546001816001161561010002031660029004801561047c5780601f106104515761010080835404028352916020019161047c565b820191906000526020600020905b81548152906001019060200180831161045f57829003601f168201915b505050505090506000815114156104f45760405180807f456d70747920496e626f78000000000000000000000000000000000000000000815250600b01905060405180910390207fc59e4b95406c7cb97824449dc40867c4680297115298d18c677f50160c96e11b60405160405180910390a2610582565b806040518082805190602001908083835b602083106105285780518252602082019150602081019050602083039250610505565b6001836020036101000a03801982511681845116808217855250505050505090500191505060405180910390207fc59e4b95406c7cb97824449dc40867c4680297115298d18c677f50160c96e11b60405160405180910390a25b50565b6000806060600060016000868152602001908152602001600020600001546001600087815260200190815260200160002060010160009054906101000a900473ffffffffffffffffffffffffffffffffffffffff16600160008881526020019081526020016000206002016001600089815260200190815260200160002060030154818054600181600116156101000203166002900480601f01602080910402602001604051908101604052809291908181526020018280546001816001161561010002031660029004801561069c5780601f106106715761010080835404028352916020019161069c565b820191906000526020600020905b81548152906001019060200180831161067f57829003601f168201915b5050505050915093509350935093509193509193565b806060819050600081511415610713576040517f08c379a0000000000000000000000000000000000000000000000000000000008152600401808060200182810382526028815260200180610b266028913960400191505060405180910390fd5b600360008154809291906001019190505550604051806080016040528060035481526020013373ffffffffffffffffffffffffffffffffffffffff168152602001848152602001428152506001600060035481526020019081526020016000206000820151816000015560208201518160010160006101000a81548173ffffffffffffffffffffffffffffffffffffffff021916908373ffffffffffffffffffffffffffffffffffffffff16021790555060408201518160020190805190602001906107e0929190610a00565b5060608201518160030155905050826000803373ffffffffffffffffffffffffffffffffffffffff1673ffffffffffffffffffffffffffffffffffffffff1681526020019081526020016000209080519060200190610840929190610a80565b5060026003549080600181540180825580915050906001820390600052602060002001600090919290919091505550826040518082805190602001908083835b602083106108a35780518252602082019150602081019050602083039250610880565b6001836020036101000a03801982511681845116808217855250505050505090500191505060405180910390203373ffffffffffffffffffffffffffffffffffffffff167f8534ed596e1a1067fcc0203a2d12c76324a50c03b6142e6cf15d75716b1d080a60405160405180910390a3505050565b60016020528060005260406000206000915090508060000154908060010160009054906101000a900473ffffffffffffffffffffffffffffffffffffffff1690806002018054600181600116156101000203166002900480601f0160208091040260200160405190810160405280929190818152602001828054600181600116156101000203166002900480156109f05780601f106109c5576101008083540402835291602001916109f0565b820191906000526020600020905b8154815290600101906020018083116109d357829003601f168201915b5050505050908060030154905084565b828054600181600116156101000203166002900490600052602060002090601f016020900481019282601f10610a4157805160ff1916838001178555610a6f565b82800160010185558215610a6f579182015b82811115610a6e578251825591602001919060010190610a53565b5b509050610a7c9190610b00565b5090565b828054600181600116156101000203166002900490600052602060002090601f016020900481019282601f10610ac157805160ff1916838001178555610aef565b82800160010185558215610aef579182015b82811115610aee578251825591602001919060010190610ad3565b5b509050610afc9190610b00565b5090565b610b2291905b80821115610b1e576000816000905550600101610b06565b5090565b9056fe4970667353746f726167653a204c656e677468206973206e6f7420657175616c20746f207a65726fa265627a7a723158204e94898bbd0b72c1f2af5a59d89f464dc398aa0e876d4df8690e1132b000fd0d64736f6c63430005100032",
  "source": "//SPDX-License-Identifier: MIT\npragma solidity >=0.5.0 <0.7.0;\n\n/**\n  @author Bhasin Neeraj\n*/\ncontract IpfsStorage {\n    //structure\n    struct Data {\n        uint256 id;\n        address from;\n        bytes ipfsAddress;\n        uint256 timestamp;\n    }\n    //map the address to ipfs_hash\n    // mapping(address => Data) public imageData;\n    mapping(address => string) ipfsHash;\n    mapping(uint256 => Data) public data;\n    uint256[] Ids;\n    uint256 dataId;\n    //events\n    event SendHash(address indexed, string indexed);\n    event ReceivedHash(string indexed);\n    //modifiers\n    modifier checkNull(string memory _ipfsHash) {\n        bytes memory checkString = bytes(_ipfsHash);\n        require(\n            checkString.length != 0,\n            \"IpfsStorage: Length is not equal to zero\"\n        );\n        _;\n    }\n\n    constructor() public {}\n\n    /**\n      @dev take the from the address and ipfs file hash and map them together.\n     \n      @param _ipfsHash -> hash the file which you want to store\n      author: Bhasin Neeraj\n     */\n    function storingHash(string memory _ipfsHash) public checkNull(_ipfsHash) {\n        dataId++;\n        data[dataId] = Data(\n            dataId,\n            msg.sender,\n            bytes(_ipfsHash),\n            block.timestamp\n        );\n        ipfsHash[msg.sender] = _ipfsHash;\n        Ids.push(dataId);\n        emit SendHash(msg.sender, _ipfsHash);\n    }\n\n    /**\n        @dev retrieve all the IDs from array of id.\n        author: Bhasin Neeraj\n     */\n    function getIds() public view returns (uint256[] memory) {\n        return Ids;\n    }\n\n    /**\n        @dev retrieve all values of struct\n        author: Bhasin Neeraj\n     */\n    function getValues(uint256 _id)\n        public\n        view\n        returns (\n            uint256,\n            address,\n            bytes memory,\n            uint256\n        )\n    {\n        return (\n            data[_id].id,\n            data[_id].from,\n            data[_id].ipfsAddress,\n            data[_id].timestamp\n        );\n    }\n\n    /**\n      @dev check for the hash.\n      If the length of hash if 0 then return the custom message otherwise hash.\n      author: Bhasin Neeraj\n     */\n    function checkInbox() public {\n        string memory ipfs_hash = ipfsHash[msg.sender];\n        if (bytes(ipfs_hash).length == 0) {\n            emit ReceivedHash(\"Empty Inbox\");\n        } else {\n            // ipfsHash[msg.sender] = \"\";\n            emit ReceivedHash(ipfs_hash);\n        }\n    }\n}\n",
  "sourcePath": "/home/default/default/smartContrats/ipfsFileUpload/contracts/IpfsStorage.sol",
  "compiler": {
    "name": "solc",
    "version": "0.5.16+commit.9c3226ce.Emscripten.clang"
  },
  "schemaVersion": "3.2.0",
  "updatedAt": "2020-06-14T15:05:33.264Z",
  "networkType": "ethereum",
  "devdoc": {
    "author": "Bhasin Neeraj",
    "methods": {
      "checkInbox()": {
        "details": "check for the hash. If the length of hash if 0 then return the custom message otherwise hash. author: Bhasin Neeraj"
      },
      "getIds()": {
        "details": "retrieve all the IDs from array of id. author: Bhasin Neeraj"
      },
      "getValues(uint256)": {
        "details": "retrieve all values of struct author: Bhasin Neeraj"
      },
      "storingHash(string)": {
        "details": "take the from the address and ipfs file hash and map them together.",
        "params": {
          "_ipfsHash": "-> hash the file which you want to store author: Bhasin Neeraj"
        }
      }
    }
  },
  "userdoc": {
    "methods": {}
  }
}