{
  "contractName": "IpfsStorage",
  "abi": [
    {
      "inputs": [],
      "payable": false,
      "stateMutability": "nonpayable",
      "type": "constructor"
    },
    {
      "anonymous": false,
      "inputs": [
        {
          "indexed": true,
          "internalType": "string",
          "name": "",
          "type": "string"
        }
      ],
      "name": "ReceivedHash",
      "type": "event"
    },
    {
      "anonymous": false,
      "inputs": [
        {
          "indexed": true,
          "internalType": "address",
          "name": "",
          "type": "address"
        },
        {
          "indexed": true,
          "internalType": "string",
          "name": "",
          "type": "string"
        }
      ],
      "name": "SendHash",
      "type": "event"
    },
    {
      "constant": true,
      "inputs": [
        {
          "internalType": "uint256",
          "name": "",
          "type": "uint256"
        }
      ],
      "name": "data",
      "outputs": [
        {
          "internalType": "uint256",
          "name": "id",
          "type": "uint256"
        },
        {
          "internalType": "address",
          "name": "from",
          "type": "address"
        },
        {
          "internalType": "bytes",
          "name": "ipfsAddress",
          "type": "bytes"
        },
        {
          "internalType": "uint256",
          "name": "timestamp",
          "type": "uint256"
        }
      ],
      "payable": false,
      "stateMutability": "view",
      "type": "function"
    },
    {
      "constant": false,
      "inputs": [
        {
          "internalType": "string",
          "name": "_ipfsHash",
          "type": "string"
        }
      ],
      "name": "storingHash",
      "outputs": [],
      "payable": false,
      "stateMutability": "nonpayable",
      "type": "function"
    },
    {
      "constant": true,
      "inputs": [],
      "name": "getIds",
      "outputs": [
        {
          "internalType": "uint256[]",
          "name": "",
          "type": "uint256[]"
        }
      ],
      "payable": false,
      "stateMutability": "view",
      "type": "function"
    },
    {
      "constant": true,
      "inputs": [
        {
          "internalType": "uint256",
          "name": "_id",
          "type": "uint256"
        }
      ],
      "name": "getValues",
      "outputs": [
        {
          "internalType": "uint256",
          "name": "",
          "type": "uint256"
        },
        {
          "internalType": "address",
          "name": "",
          "type": "address"
        },
        {
          "internalType": "bytes",
          "name": "",
          "type": "bytes"
        },
        {
          "internalType": "uint256",
          "name": "",
          "type": "uint256"
        }
      ],
      "payable": false,
      "stateMutability": "view",
      "type": "function"
    },
    {
      "constant": true,
      "inputs": [
        {
          "internalType": "address",
          "name": "_to",
          "type": "address"
        }
      ],
      "name": "checkInbox",
      "outputs": [
        {
          "internalType": "string",
          "name": "",
          "type": "string"
        }
      ],
      "payable": false,
      "stateMutability": "view",
      "type": "function"
    }
  ],
  "bytecode": "0x608060405234801561001057600080fd5b50610c8b806100206000396000f3fe608060405234801561001057600080fd5b50600436106100575760003560e01c80632b1056631461005c57806371c6826f146100bb578063b29e522c14610178578063e067c67e14610260578063f0ba84401461031b575b600080fd5b610064610403565b6040518080602001828103825283818151815260200191508051906020019060200280838360005b838110156100a757808201518184015260208101905061008c565b505050509050019250505060405180910390f35b6100fd600480360360208110156100d157600080fd5b81019080803573ffffffffffffffffffffffffffffffffffffffff16906020019092919050505061045b565b6040518080602001828103825283818151815260200191508051906020019080838360005b8381101561013d578082015181840152602081019050610122565b50505050905090810190601f16801561016a5780820380516001836020036101000a031916815260200191505b509250505060405180910390f35b6101a46004803603602081101561018e57600080fd5b810190808035906020019092919050505061068e565b604051808581526020018473ffffffffffffffffffffffffffffffffffffffff1673ffffffffffffffffffffffffffffffffffffffff16815260200180602001838152602001828103825284818151815260200191508051906020019080838360005b83811015610222578082015181840152602081019050610207565b50505050905090810190601f16801561024f5780820380516001836020036101000a031916815260200191505b509550505050505060405180910390f35b6103196004803603602081101561027657600080fd5b810190808035906020019064010000000081111561029357600080fd5b8201836020820111156102a557600080fd5b803590602001918460018302840111640100000000831117156102c757600080fd5b91908080601f016020809104026020016040519081016040528093929190818152602001838380828437600081840152601f19601f8201169050808301925050505050505091929192905050506107bb565b005b6103476004803603602081101561033157600080fd5b8101908080359060200190929190505050610a21565b604051808581526020018473ffffffffffffffffffffffffffffffffffffffff1673ffffffffffffffffffffffffffffffffffffffff16815260200180602001838152602001828103825284818151815260200191508051906020019080838360005b838110156103c55780820151818401526020810190506103aa565b50505050905090810190601f1680156103f25780820380516001836020036101000a031916815260200191505b509550505050505060405180910390f35b6060600280548060200260200160405190810160405280929190818152602001828054801561045157602002820191906000526020600020905b81548152602001906001019080831161043d575b5050505050905090565b6060806000808473ffffffffffffffffffffffffffffffffffffffff1673ffffffffffffffffffffffffffffffffffffffff1681526020019081526020016000208054600181600116156101000203166002900480601f0160208091040260200160405190810160405280929190818152602001828054600181600116156101000203166002900480156105305780601f1061050557610100808354040283529160200191610530565b820191906000526020600020905b81548152906001019060200180831161051357829003601f168201915b505050505090506000815114156105af576040517f08c379a00000000000000000000000000000000000000000000000000000000081526004018080602001828103825260078152602001807f4e6f20686173680000000000000000000000000000000000000000000000000081525060200191505060405180910390fd5b6000808473ffffffffffffffffffffffffffffffffffffffff1673ffffffffffffffffffffffffffffffffffffffff1681526020019081526020016000208054600181600116156101000203166002900480601f0160208091040260200160405190810160405280929190818152602001828054600181600116156101000203166002900480156106815780601f1061065657610100808354040283529160200191610681565b820191906000526020600020905b81548152906001019060200180831161066457829003601f168201915b5050505050915050919050565b6000806060600060016000868152602001908152602001600020600001546001600087815260200190815260200160002060010160009054906101000a900473ffffffffffffffffffffffffffffffffffffffff16600160008881526020019081526020016000206002016001600089815260200190815260200160002060030154818054600181600116156101000203166002900480601f0160208091040260200160405190810160405280929190818152602001828054600181600116156101000203166002900480156107a55780601f1061077a576101008083540402835291602001916107a5565b820191906000526020600020905b81548152906001019060200180831161078857829003601f168201915b5050505050915093509350935093509193509193565b80606081905060008151141561081c576040517f08c379a0000000000000000000000000000000000000000000000000000000008152600401808060200182810382526028815260200180610c2f6028913960400191505060405180910390fd5b600360008154809291906001019190505550604051806080016040528060035481526020013373ffffffffffffffffffffffffffffffffffffffff168152602001848152602001428152506001600060035481526020019081526020016000206000820151816000015560208201518160010160006101000a81548173ffffffffffffffffffffffffffffffffffffffff021916908373ffffffffffffffffffffffffffffffffffffffff16021790555060408201518160020190805190602001906108e9929190610b09565b5060608201518160030155905050826000803373ffffffffffffffffffffffffffffffffffffffff1673ffffffffffffffffffffffffffffffffffffffff1681526020019081526020016000209080519060200190610949929190610b89565b5060026003549080600181540180825580915050906001820390600052602060002001600090919290919091505550826040518082805190602001908083835b602083106109ac5780518252602082019150602081019050602083039250610989565b6001836020036101000a03801982511681845116808217855250505050505090500191505060405180910390203373ffffffffffffffffffffffffffffffffffffffff167f8534ed596e1a1067fcc0203a2d12c76324a50c03b6142e6cf15d75716b1d080a60405160405180910390a3505050565b60016020528060005260406000206000915090508060000154908060010160009054906101000a900473ffffffffffffffffffffffffffffffffffffffff1690806002018054600181600116156101000203166002900480601f016020809104026020016040519081016040528092919081815260200182805460018160011615610100020316600290048015610af95780601f10610ace57610100808354040283529160200191610af9565b820191906000526020600020905b815481529060010190602001808311610adc57829003601f168201915b5050505050908060030154905084565b828054600181600116156101000203166002900490600052602060002090601f016020900481019282601f10610b4a57805160ff1916838001178555610b78565b82800160010185558215610b78579182015b82811115610b77578251825591602001919060010190610b5c565b5b509050610b859190610c09565b5090565b828054600181600116156101000203166002900490600052602060002090601f016020900481019282601f10610bca57805160ff1916838001178555610bf8565b82800160010185558215610bf8579182015b82811115610bf7578251825591602001919060010190610bdc565b5b509050610c059190610c09565b5090565b610c2b91905b80821115610c27576000816000905550600101610c0f565b5090565b9056fe4970667353746f726167653a204c656e677468206973206e6f7420657175616c20746f207a65726fa265627a7a7231582089aa62f310b27657ae0d759c6216ee49442ec6f809d705c0f52860adbc254f2f64736f6c63430005100032",
  "source": "//SPDX-License-Identifier: MIT\npragma solidity >=0.5.0 <0.7.0;\n\n/**\n  @author Bhasin Neeraj\n*/\ncontract IpfsStorage {\n    //structure\n    struct Data {\n        uint256 id;\n        address from;\n        bytes ipfsAddress;\n        uint256 timestamp;\n    }\n    //map the address to ipfs_hash\n    // mapping(address => Data) public imageData;\n    mapping(address => string) ipfsHash;\n    mapping(uint256 => Data) public data;\n    uint256[] Ids;\n    uint256 dataId;\n    //events\n    event SendHash(address indexed, string indexed);\n    event ReceivedHash(string indexed);\n    //modifiers\n    modifier checkNull(string memory _ipfsHash) {\n        bytes memory checkString = bytes(_ipfsHash);\n        require(\n            checkString.length != 0,\n            \"IpfsStorage: Length is not equal to zero\"\n        );\n        _;\n    }\n\n    constructor() public {}\n\n    /**\n      @dev take the from the address and ipfs file hash and map them together.\n     \n      @param _ipfsHash -> hash the file which you want to store\n      author: Bhasin Neeraj\n     */\n    function storingHash(string memory _ipfsHash) public checkNull(_ipfsHash) {\n        dataId++;\n        data[dataId] = Data(\n            dataId,\n            msg.sender,\n            bytes(_ipfsHash),\n            block.timestamp\n        );\n        ipfsHash[msg.sender] = _ipfsHash;\n        Ids.push(dataId);\n        emit SendHash(msg.sender, _ipfsHash);\n    }\n\n    /**\n        @dev retrieve all the IDs from array of id.\n        author: Bhasin Neeraj\n     */\n    function getIds() public view returns (uint256[] memory) {\n        return Ids;\n    }\n\n    /**\n        @dev retrieve all values of struct\n        author: Bhasin Neeraj\n     */\n    function getValues(uint256 _id)\n        public\n        view\n        returns (\n            uint256,\n            address,\n            bytes memory,\n            uint256\n        )\n    {\n        return (\n            data[_id].id,\n            data[_id].from,\n            data[_id].ipfsAddress,\n            data[_id].timestamp\n        );\n    }\n\n    /**\n      @dev check for the hash.\n      If the length of hash if 0 then return the custom message otherwise hash.\n      author: Bhasin Neeraj\n     */\n    function checkInbox(address _to) public  view returns(string memory){\n        string memory ipfs_hash = ipfsHash[_to];\n        require(bytes(ipfs_hash).length != 0, \"No hash\");\n        return ipfsHash[_to];\n    }\n}\n",
  "sourcePath": "/Users/bhasineeraj/bhasineeraj/smartContracts/IPFS-Ethereum/contracts/IpfsStorage.sol",
  "compiler": {
    "name": "solc",
    "version": "0.5.16+commit.9c3226ce.Emscripten.clang"
  },
  "schemaVersion": "3.2.0",
  "updatedAt": "2020-06-14T20:45:14.990Z",
  "networkType": "ethereum",
  "devdoc": {
    "author": "Bhasin Neeraj",
    "methods": {
      "checkInbox(address)": {
        "details": "check for the hash. If the length of hash if 0 then return the custom message otherwise hash. author: Bhasin Neeraj"
      },
      "getIds()": {
        "details": "retrieve all the IDs from array of id. author: Bhasin Neeraj"
      },
      "getValues(uint256)": {
        "details": "retrieve all values of struct author: Bhasin Neeraj"
      },
      "storingHash(string)": {
        "details": "take the from the address and ipfs file hash and map them together.",
        "params": {
          "_ipfsHash": "-> hash the file which you want to store author: Bhasin Neeraj"
        }
      }
    }
  },
  "userdoc": {
    "methods": {}
  }
}